{
  "address": "0x9aD69e99E3Df5A4Aa9f8B0f2527fDb46DB35a582",
  "abi": [
    {
      "anonymous": false,
      "inputs": [
        {
          "indexed": false,
          "internalType": "uint256",
          "name": "newValue",
          "type": "uint256"
        }
      ],
      "name": "ValueChanged",
      "type": "event"
    },
    {
      "inputs": [],
      "name": "increment",
      "outputs": [],
      "stateMutability": "nonpayable",
      "type": "function"
    },
    {
      "inputs": [],
      "name": "retrieve",
      "outputs": [
        {
          "internalType": "uint256",
          "name": "",
          "type": "uint256"
        }
      ],
      "stateMutability": "view",
      "type": "function"
    },
    {
      "inputs": [
        {
          "internalType": "uint256",
          "name": "newValue",
          "type": "uint256"
        }
      ],
      "name": "store",
      "outputs": [],
      "stateMutability": "nonpayable",
      "type": "function"
    }
  ],
  "transactionHash": "0x4bde5df2915bbd478ff79bd6a42bf8c6dcb2e6aff1c1ca18833b3d41b8819386",
  "args": [],
  "numDeployments": 1,
  "solcInputHash": "b1af430c6dd6a40f50193aeb118f7ce7",
  "bytecode": "0x608060405234801561001057600080fd5b50610170806100206000396000f3fe608060405234801561001057600080fd5b50600436106100415760003560e01c80632e64cec1146100465780636057361d1461005b578063d09de08a14610070575b600080fd5b60005460405190815260200160405180910390f35b61006e6100693660046100fb565b610078565b005b61006e6100b3565b60008190556040518181527f93fe6d397c74fdf1402a8b72e47b68512f0510d7b98a4bc4cbdf6ac7108b3c599060200160405180910390a150565b6000546100c1906001610114565b60008190556040519081527f93fe6d397c74fdf1402a8b72e47b68512f0510d7b98a4bc4cbdf6ac7108b3c599060200160405180910390a1565b60006020828403121561010d57600080fd5b5035919050565b6000821982111561013557634e487b7160e01b600052601160045260246000fd5b50019056fea2646970667358221220012ca9aac0fbfa7412e4d0b5ec87faa47ba1c8d1be37c562a315b533c97ef34f64736f6c634300080d0033",
  "devdoc": {
    "kind": "dev",
    "methods": {},
    "version": 1
  },
  "userdoc": {
    "kind": "user",
    "methods": {},
    "version": 1
  },
  "storageLayout": {
    "storage": [
      {
        "astId": 3,
        "contract": "contracts/BoxV2.sol:BoxV2",
        "label": "value",
        "offset": 0,
        "slot": "0",
        "type": "t_uint256"
      }
    ],
    "types": {
      "t_uint256": {
        "encoding": "inplace",
        "label": "uint256",
        "numberOfBytes": "32"
      }
    }
  }
}